{
  "transactions": [
    {
      "hash": "0x4e79b49026badfe7c3a71729cab26aa51000a0f3fc706ebd647ed031bd86c0fd",
      "transactionType": "CALL",
      "contractName": null,
      "contractAddress": "0x779877a7b0d9e8603169ddbd7836e478b4624789",
      "function": "transferAndCall(address,uint256,bytes)",
      "arguments": [
        "0x9DdfaCa8183c41ad55329BdeeD9F6A8d53168B1B",
        "3000000000000000000",
        "0xe69816e5e964563e892a7df7868e3371fc8a594208147c6665a9e87f673de2e3"
      ],
      "transaction": {
        "from": "0x20cb6a7f84e3a27d2ed3310cb84e4fe2e96735f6",
        "to": "0x779877a7b0d9e8603169ddbd7836e478b4624789",
        "gas": "0x1c1ff",
        "value": "0x0",
        "input": "0x4000aea00000000000000000000000009ddfaca8183c41ad55329bdeed9f6a8d53168b1b00000000000000000000000000000000000000000000000029a2241af62c000000000000000000000000000000000000000000000000000000000000000000600000000000000000000000000000000000000000000000000000000000000020e69816e5e964563e892a7df7868e3371fc8a594208147c6665a9e87f673de2e3",
        "nonce": "0x41",
        "chainId": "0xaa36a7"
      },
      "additionalContracts": [],
      "isFixedGasLimit": false
    }
  ],
  "receipts": [
    {
      "status": "0x1",
      "cumulativeGasUsed": "0x17deca0",
      "logs": [
        {
          "address": "0x779877a7b0d9e8603169ddbd7836e478b4624789",
          "topics": [
            "0xddf252ad1be2c89b69c2b068fc378daa952ba7f163c4a11628f55a4df523b3ef",
            "0x00000000000000000000000020cb6a7f84e3a27d2ed3310cb84e4fe2e96735f6",
            "0x0000000000000000000000009ddfaca8183c41ad55329bdeed9f6a8d53168b1b"
          ],
          "data": "0x00000000000000000000000000000000000000000000000029a2241af62c0000",
          "blockHash": "0xe1d7a55ec5bedc54da38b440f3a2ffb44908e07f77b85099c27477896cf6ffde",
          "blockNumber": "0x849d70",
          "blockTimestamp": "0x6867e5bc",
          "transactionHash": "0x4e79b49026badfe7c3a71729cab26aa51000a0f3fc706ebd647ed031bd86c0fd",
          "transactionIndex": "0x16a",
          "logIndex": "0x239",
          "removed": false
        },
        {
          "address": "0x779877a7b0d9e8603169ddbd7836e478b4624789",
          "topics": [
            "0xe19260aff97b920c7df27010903aeb9c8d2be5d310a2c67824cf3f15396e4c16",
            "0x00000000000000000000000020cb6a7f84e3a27d2ed3310cb84e4fe2e96735f6",
            "0x0000000000000000000000009ddfaca8183c41ad55329bdeed9f6a8d53168b1b"
          ],
          "data": "0x00000000000000000000000000000000000000000000000029a2241af62c000000000000000000000000000000000000000000000000000000000000000000400000000000000000000000000000000000000000000000000000000000000020e69816e5e964563e892a7df7868e3371fc8a594208147c6665a9e87f673de2e3",
          "blockHash": "0xe1d7a55ec5bedc54da38b440f3a2ffb44908e07f77b85099c27477896cf6ffde",
          "blockNumber": "0x849d70",
          "blockTimestamp": "0x6867e5bc",
          "transactionHash": "0x4e79b49026badfe7c3a71729cab26aa51000a0f3fc706ebd647ed031bd86c0fd",
          "transactionIndex": "0x16a",
          "logIndex": "0x23a",
          "removed": false
        },
        {
          "address": "0x9ddfaca8183c41ad55329bdeed9f6a8d53168b1b",
          "topics": [
            "0x1ced9348ff549fceab2ac57cd3a9de38edaaab274b725ee82c23e8fc8c4eec7a",
            "0xe69816e5e964563e892a7df7868e3371fc8a594208147c6665a9e87f673de2e3"
          ],
          "data": "0x000000000000000000000000000000000000000000000000000000000000000000000000000000000000000000000000000000000000000029a2241af62c0000",
          "blockHash": "0xe1d7a55ec5bedc54da38b440f3a2ffb44908e07f77b85099c27477896cf6ffde",
          "blockNumber": "0x849d70",
          "blockTimestamp": "0x6867e5bc",
          "transactionHash": "0x4e79b49026badfe7c3a71729cab26aa51000a0f3fc706ebd647ed031bd86c0fd",
          "transactionIndex": "0x16a",
          "logIndex": "0x23b",
          "removed": false
        }
      ],
      "logsBloom": "0x00000004000000100000000000002000000000000020000000000000220000000000000000000000000000000000000000000000000000000000000000000000000000000000000000000008010000000000000000000000000020000020000008000000000000000000000000000000000000000000000000000010000040000000000000000000000000010000800000000020000000000000000000000000000000000000000000000000010000000000000000020000000004000000000000000002000000000000000000000000080000000000000100000000000000000010000000000000800000000000000000000000000000000000000000000000",
      "type": "0x2",
      "transactionHash": "0x4e79b49026badfe7c3a71729cab26aa51000a0f3fc706ebd647ed031bd86c0fd",
      "transactionIndex": "0x16a",
      "blockHash": "0xe1d7a55ec5bedc54da38b440f3a2ffb44908e07f77b85099c27477896cf6ffde",
      "blockNumber": "0x849d70",
      "gasUsed": "0x133b1",
      "effectiveGasPrice": "0x11a6ceca2",
      "from": "0x20cb6a7f84e3a27d2ed3310cb84e4fe2e96735f6",
      "to": "0x779877a7b0d9e8603169ddbd7836e478b4624789",
      "contractAddress": null
    }
  ],
  "libraries": [],
  "pending": [],
  "returns": {},
  "timestamp": 1751639487,
  "chain": 11155111,
  "commit": "92f1001"
}